:020000040800F2
:1000000000000120F50E00081D0E0008290E000852
:10001000310E0008390E0008410E000800000000F3
:10002000000000000000000000000000490E000871
:10003000550E000800000000610E00086D0E00085B
:10004000390F0008390F0008390F0008390F000870
:10005000390F0008390F0008390F0008390F000860
:10006000390F0008390F0008390F0008390F000850
:10007000390F0008390F0008390F0008390F000840
:10008000390F0008390F0008390F0008390F000830
:10009000390F0008390F0008390F0008390F000820
:1000A000390F0008390F0008390F0008390F000810
:1000B000390F0008390F0008390F0008390F000800
:1000C000390F0008390F0008390F0008390F0008F0
:1000D000390F0008390F0008390F0008390F0008E0
:1000E000390F0008390F0008390F00080000000020
:1000F0000000000000000000000000000000000000
:100100000000000000000000390F0008390F00084F
:10011000390F0008390F0008390F0008390F00089F
:10012000390F0008390F0008390F0008390F00088F
:10013000390F00080000000000000000390F00081F
:10014000390F0008390F0008390F0008390F00086F
:10015000000000000000000000000000000000009F
:10016000000000000000000000000000000000008F
:10017000000000000000000000000000000000007F
:10018000000000000000000000000000000000006F
:10019000000000000000000000000000000000005F
:1001A000000000000000000000000000000000004F
:1001B000000000000000000000000000000000003F
:1001C000000000000000000000000000000000002F
:1001D000000000000000000000000000000000001F
:0401E0005FF8E0F1F3
:1001E40010B5054C237833B9044B13B10448AFF36D
:1001F40000800123237010BD0C00002000000000CB
:10020400D026000808B5034B1BB103490348AFF3DC
:10021400008008BD0000000010000020D026000867
:1002240053B94AB9002908BF00281CBF4FF0FF3159
:100234004FF0FF3000F08CB9ADF1080C6DE904CE3D
:1002440000F006F8DDF804E0DDE9022304B07047AD
:100254002DE9F047089D8E4604468846002B4AD176
:100264008A42174662D9B2FA82F64EB1C6F1200329
:1002740001FA06F820FA03F3B74043EA0808B44049
:100284004FEA174EB8FBFEF11FFA87FC0EFB1188EC
:1002940001FB0CF2230C43EA08439A4209D9FB18E8
:1002A40001F1FF3080F0EB809A4240F2E88002399D
:1002B4003B449A1AB2FBFEF00EFB102200FB0CFC2E
:1002C400A3B243EA02439C4509D9FB1800F1FF326B
:1002D40080F0D7809C4540F2D4803B44023840EA09
:1002E40001400021A3EB0C031DB10022F340C5E93A
:1002F4000032BDE8F0878B4205D90DB1C5E9000194
:1003040000210846F5E7B3FA83F1002946D1734585
:1003140002D3824200F20881841A6EEB03020120A8
:100324009046002DE5D0C5E90048E2E7002A00F038
:100334009180B2FA82F6002E40F0A5808A1A01213B
:10034400030C4FEA174E80B2BCB2B2FBFEFC0EFBAC
:100354001C2243EA024304FB0CF29A4207D9FB181D
:100364000CF1FF3802D29A4200F2E380C4469B1A91
:10037400B3FBFEF20EFB123302FB04F440EA034328
:100384009C4207D9FB1802F1FF3002D29C4200F2D2
:10039400CD8002461B1B42EA0C40A5E7C1F12006B2
:1003A4008B4022FA06F71F432EFA06FA4FEA174942
:1003B400BAFBF9F80EFA01FE20FA06F309FB18AAB3
:1003C4001FFA87FC43EA0E0300FA01FE08FB0CF057
:1003D4001C0C44EA0A44A04202FA01F20AD93C196C
:1003E40008F1FF3A80F09E80A04240F29B80A8F181
:1003F40002083C44241A98B2B4FBF9F309FB1344F1
:1004040003FB0CFC40EA0444A44509D93C1903F15C
:10041400FF3080F08580A44540F28280023B3C445A
:1004240043EA0840A4EB0C04A0FB028C6445434659
:10043400E14664D361D05DB1BEEB030264EB090411
:1004440004FA06F622FA01F31E43CC40C5E900641F
:1004540000214EE7B1FBF2FC010C41EA0E4180B2EF
:1004640040EA01423B46B1FBF7F138463C46B84608
:10047400BE462026A2EB080241EA0C4165E701468C
:1004840017E710462BE7C6F120012EFA01FCB7400E
:100494000EFA06FE20FA01F141EA0E014FEA174E68
:1004A400BCFBFEF8BCB20EFB18CC08FB04F90A0C2A
:1004B40042EA0C42B04091454FEA104380B23ED923
:1004C400BA1808F1FF3C01D291451FD8A2EB0902EA
:1004D400B2FBFEF909FB04F80EFB192A8AB242EAC0
:1004E4000A42424529D2BA1809F1FF31C2D2424523
:1004F400C0D2A9F102013A44BCE7C6459BD2B8EB8D
:1005040002036CEB070C0138E14694E7A7EB0909F9
:100514004A44B2FBFEF9A8F1020C09FB04F8DBE73C
:1005240003467DE7D04665E70846FAE63B44023ACF
:1005340030E7ACF1020C3B4419E749469AE7A2EBD9
:100544000902B2FBFEF9C44609FB04F8C4E700BF84
:10055400704700BF80B485B000AF0346FB80002322
:10056400FB600BE00A4AFB6832F81330FA889A42BF
:1005740001D1012307E0FB680133FB600222FB6821
:100584009342EFD3002318461437BD4680BC70470E
:100594001827000880B485B000AF0346FB80002311
:1005A400FB600BE00A4AFB6832F81330FA889A427F
:1005B40001D1012307E0FB680133FB600222FB68E1
:1005C4009342EFD3002318461437BD4680BC7047CE
:1005D4001C27000880B582B000AF78603960002124
:1005E400786801F08DF80346002BF8D0314B324A7D
:1005F4000021786800F073FF0346002B01D000F05F
:100604001BFB2D4B1B689BB21846FFF7A3FF034649
:10061400002B17D13968786800F056F8386800F074
:100624002AFF0346002B0DD0244B254A2549386860
:1006340000F047FE0346002B04D0386801F087F829
:1006440000F0FAFA0121386801F05AF80346002B49
:10065400C5D0184B184A0121386800F040FF034602
:10066400002B01D000F0E8FA134B1B689BB218462C
:10067400FFF790FF0346002B17D17968386800F024
:1006840023F8786800F0F7FE0346002B0DD00B4BDF
:100694000B4A0C49786800F014FE0346002B04D082
:1006A400786801F054F800F0C7FA012000F0A6FCC5
:1006B40095E700BF680000204C000020480000209F
:1006C400400000202800002080B582B000AF786090
:1006D4003960104B104A92E8030083E803000F4B83
:1006E4001B690F4A13610D4B1B680D4A13600C4BB9
:1006F4000022DA600A4B00229A60084B1B681846F5
:100704003B687A68034900F00DF800BF0837BD461E
:1007140080BD00BF40000020680000204C00002085
:100724002800002080B586B000AFF860B9607A6018
:100734003B60FB6840F2E932934243D1BB681B78CB
:100744007B757B7D1B09DAB22A4B1A70294B1B7807
:10075400032B02D9274B00221A70264B1B78032B3C
:1007640026D801A252F823F07D0700088B07000861
:1007740099070008A70700081F4B61221A701F4B36
:1007840008221A701BE01C4B63221A701B4B0922AF
:100794001A7014E0184B65221A70184B0A221A704A
:1007A4000DE0154B67221A70144B0B221A7006E0E9
:1007B400114B61221A70114B08221A7000BF38685D
:1007C40000F086F8FB6840F2533293420ED1BB68C6
:1007D40004331B781E33FB82FB8AFF2B01D9FF23D2
:1007E400FB82BB680433FA8AD2B21A7000BF18378E
:1007F400BD4680BD70000020710000207200002002
:1008040080B58CB000AF7860164A07F1100392E807
:10081400030083E803004FF44473BB610023FB61CE
:1008240000233B6200237B620823BB62002387F81A
:100834002C30786800F01FFE0346002B0ED007F121
:100844000C0307F1100207F11801786800F039FD74
:100854000346002B02D0786800F079FF00BF3037E0
:10086400BD4680BDE826000880B58CB000AF786036
:10087400164A07F1100392E8030083E803004FF4DB
:100884004473BB610023FB6100233B6200237B6252
:100894000823BB62002387F82C30786800F0EBFD56
:1008A4000346002B0ED007F10C0307F1100207F1E9
:1008B4001801786800F005FD0346002B02D0786823
:1008C40000F045FF00BF3037BD4680BDF02600086C
:1008D40080B58CB000AF786001233B7400237B7437
:1008E4000323BB743023FB74174B1B783B75102315
:1008F4007B754A23BB75154B1B78FB752323BB61A2
:100904000023FB6100233B6200237B620823BB625C
:10091400002387F82C30786800F0ADFD0346002BE7
:100924000ED007F10C0307F1100207F118017868E3
:1009340000F0C7FC0346002B02D0786800F007FFE4
:1009440000BF3037BD4680BD71000020720000201A
:1009540080B582B000AF00F0EFFA00F045F800F087
:1009640013F900F095F800F0CDF81B491B48FFF788
:1009740031FE00237B6018491848FFF72BFE4FF423
:100984000041174801F06EF90346FB704FF4806193
:10099400144801F067F90346BB7000F025FB0246DA
:1009A4007B68D31A632BE6D9FB78002B09D1BB787B
:1009B400002B06D10848FFF757FF00F015FB7860BD
:1009C40008E0FB78002BD6D10348FFF719FF00F0AD
:1009D4000BFB7860CFE700BF9C0000207400002070
:1009E400000801400010014080B594B000AF07F149
:1009F400180338220021184601F060FE3B1D002236
:100A04001A605A609A60DA601A610123BB614FF47C
:100A140080333B6204237B620123FB624FF4803307
:100A2400FB610223BB634FF48033FB634FF4E01399
:100A34003B6402237B644FF4C063BB644023FB64C8
:100A440007F11803184601F03DF90346002B01D0C5
:100A540000F0F2F80F237B600223BB600023FB60ED
:100A64004FF480633B6100237B613B1D02211846E8
:100A740001F03EFC0346002B01D000F0DDF8034BEF
:100A840001221A6000BF5037BD4680BD700042424B
:100A940080B58AB000AF194B194A1A60174B062269
:100AA4005A60164B00229A60144B0022DA60134BF2
:100AB4004FF4E0221A61114B4FF400125A610F4BAC
:100AC40000221A760D4B00225A760C4B00229A769D
:100AD4000A4B0022DA76094B00221A77074B0022D0
:100AE4005A77064800F0AEFA0346002B01D000F016
:100AF400A3F800BF2837BD4680BD00BF74000020A6
:100B04000064004080B58AB000AF1D4B1D4A1A60D6
:100B14001B4B06225A601A4B00229A60184B002283
:100B2400DA60174B4FF4E0221A61154B4FF40012B0
:100B34005A61134B00221A76114B00225A76104B3D
:100B440000229A760E4B0022DA760D4B00221A7799
:100B54000B4B00225A770A4800F074FA0346002B24
:100B640001D000F069F8064800F067FB0346002B4B
:100B740001D000F061F800BF2837BD4680BD00BF3A
:100B84009C0000200068004080B588B000AF07F1E9
:100B9400100300221A605A609A60DA60244B9B6941
:100BA400234A43F020039361214B9B6903F0200304
:100BB400FB60FB681E4B9B691D4A43F00403936171
:100BC4001B4B9B6903F00403BB60BB68184B9B6918
:100BD400174A43F010039361154B9B6903F010030C
:100BE4007B607B68124B9B69114A43F00803936155
:100BF4000F4B9B6903F008033B603B6801224FF4F1
:100C040080610C4801F045F84FF480633B61012397
:100C14007B610023BB610223FB6107F110031946CA
:100C2400044800F09BFE00BF2037BD4680BD00BFD6
:100C3400001002400010014080B400AF00BFBD4668
:100C440080BC704780B584B000AF164B9B69154AD1
:100C540043F001039361134B9B6903F00103BB60F1
:100C6400BB68104BDB690F4A43F08053D3610D4BD3
:100C7400DB6903F080537B607B68072000F03AFE59
:100C8400094B5B68FB60FB6823F0E063FB60FB6877
:100C940043F00073FB60044AFB68536000BF1037E5
:100CA400BD4680BD001002400000014080B58CB0FC
:100CB40000AF786007F11C0300221A605A609A6042
:100CC400DA607B681B684D4A93423BD14C4B1B68EE
:100CD40001334B4A13604A4B1B68012B0BD1494B20
:100CE400DB69484A43F00073D361464BDB6903F088
:100CF4000073BB61BB69434B9B69424A43F00403E5
:100D04009361404B9B6903F004037B617B694FF45F
:100D14000063FB6100233B6200237B6207F11C0339
:100D24001946394800F01AFE4FF48053FB61022340
:100D34003B620323BB6207F11C031946324800F0EF
:100D44000DFE57E07B681B68304A934252D12D4B0D
:100D5400DB692C4A43F08063D3612A4BDB6903F0DF
:100D640080633B613B69264B1B680133244A136053
:100D7400234B1B68012B0BD1224BDB69214A43F027
:100D84000073D3611F4BDB6903F00073FB60FB68E6
:100D94001C4B9B691B4A43F008039361194B9B69E5
:100DA40003F00803BB60BB682023FB6100233B62A4
:100DB40000237B6207F11C031946154800F0CEFDA1
:100DC4004023FB6102233B620323BB6207F11C0344
:100DD40019460F4800F0C2FD0E4B5B68FB62FB6ACC
:100DE40043F0E063FB62FB6A43F48003FB62094A5D
:100DF400FB6A536000BF3037BD4680BD00640040CD
:100E0400C4000020001002400008014000680040B7
:100E1400000C01400000014080B400AF00BFBD469B
:100E240080BC704780B400AF00BFFDE780B400AF62
:100E340000BFFDE780B400AF00BFFDE780B400AFA2
:100E440000BFFDE780B400AF00BFBD4680BC704763
:100E540080B400AF00BFBD4680BC704780B400AF13
:100E640000BFBD4680BC704780B500AF00F0AAF853
:100E740000BF80BD80B400AF1A4B1B68194A43F011
:100E840001031360174B5A681649174B13404B6004
:100E9400144B1B68134A23F0847323F480331360C8
:100EA400104B1B680F4A23F4802313600D4B5B68BF
:100EB4000C4A23F4FE0353600A4B1B68094A23F0CF
:100EC400A0531360074B4FF47F029A60054B002236
:100ED400DA62064B4FF000629A6000BFBD4680BCE8
:100EE400704700BF001002400000FFF000ED00E07A
:100EF400002103E00A4B5B584350043109480A4B74
:100F040042189A42F6D3094A02E0002342F8043B0D
:100F1400074B9A42F9D3FFF7ADFFFFF719FD70476E
:100F240040270008000000200C0000200C000020D6
:100F3400CC000020FEE7000080B500AF084B1B6822
:100F4400074A43F010031360032000F0D3FC002091
:100F540000F008F8FFF776FE0023184680BD00BFB6
:100F64000020024080B582B000AF7860124B1A684E
:100F7400124B1B7819464FF47A73B3FBF1F3B2FBAF
:100F8400F3F3184600F0DDFC0346002B01D00123E7
:100F94000EE07B680F2B0AD8002279684FF0FF30EF
:100FA40000F0B3FC064A7B681360002300E00123D1
:100FB40018460837BD4680BD000000200800002008
:100FC4000400002080B400AF054B1B781A46054B83
:100FD4001B681344034A136000BFBD4680BC7047BE
:100FE40008000020C800002080B400AF024B1B683A
:100FF4001846BD4680BC7047C800002080B584B048
:1010040000AF7860FFF7F0FFB8607B68FB60FB68B7
:10101400B3F1FF3F05D00A4B1B781A46FB68134413
:10102400FB6000BFFFF7E0FF0246BB68D31AFA6813
:101034009A42F7D800BF00BF1037BD4680BD00BF3D
:101044000800002080B584B000AF78607B68002B76
:1010540001D10123EDE07B6893F82030DBB2002B53
:1010640002D17868FFF722FE7B681B681A687B68E8
:101074001B6822F002021A60FFF7B6FFF86012E064
:10108400FFF7B2FF0246FB68D31A0A2B0BD97B6821
:101094005B6A43F400327B685A627B68052283F8FA
:1010A40020200123C5E07B681B685B6803F0020312
:1010B400002BE5D17B681B681A687B681B6842F0CB
:1010C40001021A60FFF790FFF86012E0FFF78CFF4F
:1010D4000246FB68D31A0A2B0BD97B685B6A43F47C
:1010E40000327B685A627B68052283F82020012342
:1010F4009FE07B681B685B6803F00103002BE5D06D
:101104007B681B7E012B08D17B681B681A687B688F
:101114001B6842F080021A6007E07B681B681A684B
:101124007B681B6822F080021A607B685B7E012B5F
:1011340008D17B681B681A687B681B6842F0400210
:101144001A6007E07B681B681A687B681B6822F0DA
:1011540040021A607B689B7E012B08D17B681B6868
:101164001A687B681B6842F020021A6007E07B68FB
:101174001B681A687B681B6822F020021A607B686F
:10118400DB7E012B08D17B681B681A687B681B68AF
:1011940022F010021A6007E07B681B681A687B68FB
:1011A4001B6842F010021A607B681B7F012B08D178
:1011B4007B681B681A687B681B6842F008021A6027
:1011C40007E07B681B681A687B681B6822F00802CA
:1011D4001A607B685B7F012B08D17B681B681A68E7
:1011E4007B681B6842F004021A6007E07B681B6896
:1011F4001A687B681B6822F004021A607B689A688C
:101204007B68DB681A437B681B691A437B685B69EC
:1012140042EA03017B685B685A1E7B681B680A43C9
:10122400DA617B6800225A627B68012283F82020FD
:10123400002318461037BD4680BD80B584B000AF8A
:1012440078607B6893F82030DBB2012B2ED17B6869
:10125400022283F820207B681B681A687B681B685D
:1012640022F001021A60FFF7BFFEF86012E0FFF7F8
:10127400BBFE0246FB68D31A0A2B0BD97B685B6A58
:1012840043F400327B685A627B68052283F820208D
:10129400012312E07B681B685B6803F00103002BE9
:1012A400E5D17B6800225A62002306E07B685B6A12
:1012B40043F400227B685A62012318461037BD4666
:1012C40080BD80B489B000AFF860B9607A603B60DB
:1012D400FB6893F82030FB77FB681B689B68BB6155
:1012E400FB7F012B03D0FB7F022B40F0B880BB694E
:1012F40003F08063002B0AD1BB6903F00063002B69
:1013040005D1BB6903F08053002B00F0A080BB69BA
:101314001B0E03F003037B617B69022B07D9FB6877
:101324005B6A43F40002FB685A6201239EE00122D7
:101334007B699A403B681A60BB689B68002B0DD19F
:10134400BB681B685A05BB68DB68F96809681A43FF
:101354007B6918331B010B441A600FE0BB685B68A0
:10136400DA00BB689B681A43BB68DB68F9680968E4
:101374001A437B6918331B010B441A60FB68196814
:10138400BB681A697B6918331B010B4404331A6068
:10139400BB681B7D012B11D1FB681A687B6918336C
:1013A4001B01134404331B68FA68116843F4807208
:1013B4007B6918331B010B4404331A607B680733C1
:1013C4001B781A067B6806331B781B041A437B6858
:1013D40005331B781B0213437A68043212781046D3
:1013E400FA68116843EA00027B691B010B4403F5A8
:1013F400C6731A607B6803331B781A067B68023352
:101404001B781B041A437B6801331B781B021343AC
:101414007A6812781046FA68116843EA00027B6918
:101424001B010B4403F5C4731A60FB681A687B69DB
:1014340018331B0113441B68FA68116843F0010256
:101444007B6918331B010B441A6000230EE0FB6810
:101454005B6A43F40012FB685A62012306E0FB68EE
:101464005B6A43F48022FB685A62012318462437DE
:10147400BD4680BC704780B485B000AF786000235F
:10148400FB607B6893F82030FB72FB7A012B02D05F
:10149400FB7A022B1DD17B681B689B6803F0806379
:1014A400002B02D0FB680133FB607B681B689B68E0
:1014B40003F00063002B02D0FB680133FB607B6800
:1014C4001B689B6803F08053002B02D0FB68013338
:1014D400FB60FB6818461437BD4680BC704780B477
:1014E40087B000AFF860B9607A603B60FB6893F83E
:1014F4002030FB75FB7D012B03D0FB7D022B40F0DC
:10150400F380BB68002B0ED1FB681B68DB6803F01B
:101514000303002B16D1FB685B6A43F40012FB68DB
:101524005A620123E7E0FB681B681B6903F00303AD
:10153400002B07D1FB685B6A43F40012FB685A6214
:101544000123D8E0FB681A68BB681B331B011344F2
:101554001B6803F004027B689A607B689B68002B1D
:101564000CD1FB681A68BB681B331B0113441B684E
:101574005B0DC3F30A027B681A600BE0FB681A6810
:10158400BB681B331B0113441B68DB0823F0604258
:101594007B685A60FB681A68BB681B331B011344E1
:1015A4001B6803F002027B68DA60FB681A68BB6898
:1015B4001B331B01134404331B6803F00F027B68C5
:1015C4001A61FB681A68BB681B331B01134404339C
:1015D4001B681B0ADAB27B689A61FB681A68BB68ED
:1015E4001B331B01134404331B681B0C9AB27B6826
:1015F4005A61FB681A68BB681B01134403F5DC736A
:101604001B68DAB23B681A70FB681A68BB681B0176
:10161400134403F5DC731B681A0A3B680133D2B226
:101624001A70FB681A68BB681B01134403F5DC736A
:101634001B681A0C3B680233D2B21A70FB681A6832
:10164400BB681B01134403F5DC731B681A0E3B686B
:101654000333D2B21A70FB681A68BB681B011344C7
:1016640003F5DE731A683B680433D2B21A70FB6860
:101674001A68BB681B01134403F5DE731B681A0A5E
:101684003B680533D2B21A70FB681A68BB681B0149
:10169400134403F5DE731B681A0C3B680633D2B29D
:1016A4001A70FB681A68BB681B01134403F5DE73E8
:1016B4001B681A0E3B680733D2B21A70BB68002B42
:1016C40008D1FB681B68DA68FB681B6842F02002DB
:1016D400DA6007E0FB681B681A69FB681B6842F064
:1016E40020021A61002306E0FB685B6A43F480224F
:1016F400FB685A62012318461C37BD4680BC7047FC
:1017040080B485B000AF786039600023FB607B68EB
:1017140093F82030FB72FB7A012B02D0FB7A022B68
:101724000FD13B68002B06D17B681B68DB6803F094
:101734000303FB6005E07B681B681B6903F003037C
:10174400FB60FB6818461437BD4680BC704780B404
:1017540085B000AF78600023FB737B6893F820307A
:10176400BB73BB7B012B02D0BB7B022B03D17B68F9
:1017740000225A6207E07B685B6A43F480227B683C
:101784005A620123FB73FB7B18461437BD4680BCA9
:101794007047000080B485B000AF78607B6803F0C8
:1017A4000703FB600C4BDB68BB60BA684FF6FF03B2
:1017B4001340BB60FB681A02BB68134343F0BF636A
:1017C40043F40033BB60044ABB68D36000BF1437E2
:1017D400BD4680BC704700BF00ED00E080B400AFA0
:1017E400044BDB681B0A03F007031846BD4680BCA4
:1017F400704700BF00ED00E080B483B000AF034643
:101804003960FB7197F90730002B0ADB3B68DAB2C9
:101814000C4997F907301201D2B20B4483F8002324
:101824000AE03B68DAB20849FB7903F00F03043B92
:101834001201D2B20B441A7600BF0C37BD4680BCED
:10184400704700BF00E100E000ED00E080B489B023
:1018540000AFF860B9607A60FB6803F00703FB61CE
:10186400FB69C3F10703042B28BF0423BB61FB6995
:101874000433062B02D9FB69033B00E000237B61A0
:101884004FF0FF32BB6902FA03F3DA43BB681A4034
:101894007B699A404FF0FF317B6901FA03F3D94326
:1018A4007B680B40134318462437BD4680BC704701
:1018B40080B582B000AF78607B68013BB3F1807F74
:1018C40001D301230FE00A4A7B68013B53600F21D7
:1018D4004FF0FF30FFF790FF054B00229A60044B56
:1018E40007221A60002318460837BD4680BD00BF92
:1018F40010E000E080B582B000AF78607868FFF750
:1019040049FF00BF0837BD4680BD80B586B000AF33
:101914000346B9607A60FB7300237B61FFF75EFFC7
:1019240078617A68B9687869FFF790FF024697F999
:101934000F3011461846FFF75FFF00BF1837BD464A
:1019440080BD80B582B000AF78607868FFF7B0FFE3
:10195400034618460837BD4680BD000080B48BB0EE
:1019640000AF7860396000237B6200233B6269E149
:1019740001227B6A02FA03F3FB613B681B68FA6984
:101984001340BB61BA69FB699A4240F058813B68D5
:101994005B689A4A93425ED0984A934275D8984AB3
:1019A400934258D0964A93426FD8964A934252D063
:1019B400944A934269D8944A93424CD0924A9342AF
:1019C40063D8924A934246D0904A93425DD8122BF0
:1019D4002AD8122B59D801A252F823F05B1A000816
:1019E400351A0008471A0008891A00088F1A0008D7
:1019F4008F1A00088F1A00088F1A00088F1A00081F
:101A04008F1A00088F1A00088F1A00088F1A00080E
:101A14008F1A00088F1A00088F1A00088F1A0008FE
:101A24003D1A0008511A0008794A934213D02CE059
:101A34003B68DB683B6229E03B68DB6804333B625C
:101A440024E03B68DB6808333B621FE03B68DB68EB
:101A54000C333B621AE03B689B68002B02D10423E1
:101A64003B6213E03B689B68012B05D108233B6272
:101A74007B68FA691A6109E008233B627B68FA69AA
:101A84005A6103E000233B6200E000BFBB69FF2B07
:101A940001D87B6801E07B6804337B61BB69FF2B61
:101AA40002D87B6A9B0002E07B6A083B9B003B6197
:101AB4007B691A680F213B6901FA03F3DB431A407F
:101AC400396A3B6901FA03F31A437B691A603B687C
:101AD4005B6803F08053002B00F0B1804D4B9B6991
:101AE4004C4A43F0010393614A4B9B6903F00103A1
:101AF400BB60BB68484A7B6A9B08023352F82330B8
:101B0400FB607B6A03F003039B000F2202FA03F3DA
:101B1400DB43FA681340FB607B68404A934213D06E
:101B24007B683F4A93420DD07B683E4A934207D07C
:101B34007B683D4A934201D1032306E0042304E079
:101B4400022302E0012300E000237A6A02F0030288
:101B540092009340FA681343FB602F497B6A9B0809
:101B64000233FA6841F823203B685B6803F480334E
:101B7400002B06D02D4B1A682C49BB6913430B600C
:101B840006E02A4B1A68BB69DB43284913400B6003
:101B94003B685B6803F40033002B06D0234B5A6880
:101BA4002249BB6913434B6006E0204B5A68BB696A
:101BB400DB431E4913404B603B685B6803F48013AE
:101BC400002B06D0194B9A681849BB6913438B60E4
:101BD40006E0164B9A68BB69DB43144913408B60DB
:101BE4003B685B6803F40013002B21D00F4BDA68C9
:101BF4000E49BB691343CB6021E000BF00003210E3
:101C0400000031100000221000002110000012100A
:101C140000001110001002400000014000080140C3
:101C2400000C014000100140001401400004014078
:101C34000B4BDA68BB69DB4309491340CB607B6A11
:101C440001337B623B681A687B6A22FA03F3002B38
:101C54007FF48EAE00BF00BF2C37BD4680BC7047FA
:101C64000004014080B485B000AF78600B467B80EF
:101C74007B689A687B881340002B02D00123FB7396
:101C840001E00023FB73FB7B18461437BD4680BC80
:101C9400704780B483B000AF78600B467B801346F6
:101CA4007B707B78002B03D07A887B681A6103E011
:101CB4007B881A047B681A6100BF0C37BD4680BC60
:101CC4007047000080B586B000AF78607B68002B59
:101CD40001D1012304E37B681B6803F00103002B9B
:101CE40000F08780924B5B6803F00C03042B0CD04C
:101CF4008F4B5B6803F00C03082B12D18C4B5B6891
:101D040003F48033B3F5803F0BD1894B1B6803F494
:101D14000033002B6CD07B689B68002B68D10123B7
:101D2400DEE27B689B68B3F5803F06D1804B1B687D
:101D34007F4A43F4803313602EE07B689B68002B5A
:101D44000CD17B4B1B687A4A23F480331360784BA5
:101D54001B68774A23F4802313601DE07B689B682B
:101D6400B3F5A02F0CD1724B1B68714A43F4802346
:101D740013606F4B1B686E4A43F4803313600BE0AF
:101D84006B4B1B686A4A23F480331360684B1B68EF
:101D9400674A23F4802313607B689B68002B13D06D
:101DA400FFF722F9386108E0FFF71EF902463B69A4
:101DB400D31A642B01D9032392E25D4B1B6803F40D
:101DC4000033002BF0D014E0FFF70EF9386108E07F
:101DD400FFF70AF902463B69D31A642B01D903239E
:101DE4007EE2534B1B6803F40033002BF0D100E078
:101DF40000BF7B681B6803F00203002B63D04C4BCD
:101E04005B6803F00C03002B0BD0494B5B6803F0B9
:101E14000C03082B1CD1464B5B6803F48033002B66
:101E240016D1434B1B6803F00203002B05D07B68DB
:101E34005B69012B01D0012352E23D4B1B6823F067
:101E4400F8027B689B69DB00394913430B603AE075
:101E54007B685B69002B20D0364B01221A60FFF7A8
:101E6400C3F8386108E0FFF7BFF802463B69D31AAC
:101E7400022B01D9032333E22D4B1B6803F0020329
:101E8400002BF0D02A4B1B6823F0F8027B689B6977
:101E9400DB00274913430B6015E0264B00221A6030
:101EA400FFF7A2F8386108E0FFF79EF802463B69A5
:101EB400D31A022B01D9032312E21D4B1B6803F032
:101EC4000203002BF0D17B681B6803F00803002B8E
:101ED4003AD07B68DB69002B19D0174B01221A60BA
:101EE400FFF782F8386108E0FFF77EF802463B69A5
:101EF400D31A022B01D90323F2E10D4B5B6A03F0E1
:101F04000203002BF0D0012000F0BAFB1CE00A4BC6
:101F140000221A60FFF768F838610FE0FFF764F8F1
:101F240002463B69D31A022B08D90323D8E100BF28
:101F34000010024000004242800442429B4B5B6A14
:101F440003F00203002BE9D17B681B6803F0040350
:101F5400002B00F0A6800023FB75944BDB6903F093
:101F64008053002B0DD1914BDB69904A43F0805391
:101F7400D3618E4BDB6903F08053BB60BB680123E4
:101F8400FB758B4B1B6803F48073002B18D1884BB3
:101F94001B68874A43F480731360FFF725F83861A0
:101FA40008E0FFF721F802463B69D31A642B01D9F4
:101FB400032395E17E4B1B6803F48073002BF0D060
:101FC4007B681B69012B06D1784B1B6A774A43F067
:101FD400010313622DE07B681B69002B0CD1734B4A
:101FE4001B6A724A23F001031362704B1B6A6F4A27
:101FF40023F0040313621CE07B681B69052B0CD1DE
:102004006A4B1B6A694A43F004031362674B1B6AF9
:10201400664A43F0010313620BE0644B1B6A634A94
:1020240023F001031362614B1B6A604A23F004032B
:1020340013627B681B69002B15D0FEF7D5FF38614E
:102044000AE0FEF7D1FF02463B69D31A41F2883217
:10205400934201D9032343E1544B1B6A03F0020367
:10206400002BEED014E0FEF7BFFF38610AE0FEF764
:10207400BBFF02463B69D31A41F28832934201D92D
:1020840003232DE1494B1B6A03F00203002BEED11D
:10209400FB7D012B05D1454BDB69444A23F080537A
:1020A400D3617B68DB6A002B00F08C803F4B5B685C
:1020B40003F48033B3F5803F0ED13C4B5B6803F0EF
:1020C4000C03082B08D1394BDB6A03F48033B3F5D6
:1020D400803F01D1012303E17B68DB6A022B4ED1EF
:1020E400324B1B6803F08053002B09D02F4BDB6A63
:1020F40003F0F0027B685B6B9A4201D00123EFE0AE
:102104002C4B00221A60FEF76FFF386108E0FEF7DF
:102114006BFF02463B69D31A642B01D90323DFE02A
:10212400224B1B6803F00063002BF0D11F4BDB6ACA
:1021340023F0F0027B685B6B1C491343CB621B4B9F
:10214400DB6A23F470627B681B6B18491343CB6210
:10215400184B01221A60FEF747FF386108E0FEF7CA
:1021640043FF02463B69D31A642B01D90323B7E02A
:102174000E4B1B6803F00063002BF0D022E00B4BE6
:10218400DB6A0A4A23F48033D3620A4B00221A60C2
:10219400FEF72AFF38610FE0FEF726FF02463B698F
:1021A400D31A642B08D903239AE000BF001002401D
:1021B40000700040680042424B4B1B6803F0006310
:1021C400002BE9D17B681B6A002B00F08880464B0A
:1021D4005B6803F00C03082B68D07B681B6A022B36
:1021E4004DD1424B00221A60FEF7FEFE386108E032
:1021F400FEF7FAFE02463B69D31A022B01D90323E8
:102204006EE0394B1B6803F00073002BF0D17B6840
:102214005B6AB3F5803F0FD1334BDA6A7B685B6846
:1022240031491343CB62304BDB6A23F00F027B68E6
:10223400DB682D491343CB622B4B5B6823F4741288
:102244007B68596A7B689B6A0B43274913434B603D
:10225400264B01221A60FEF7C7FE386108E0FEF73C
:10226400C3FE02463B69D31A022B01D9032337E08C
:102274001D4B1B6803F00073002BF0D02FE01B4BA9
:1022840000221A60FEF7B0FE386108E0FEF7ACFEEB
:1022940002463B69D31A022B01D9032320E0124BD7
:1022A4001B6803F00073002BF0D118E07B681B6AF5
:1022B400012B01D1012313E00B4B5B68FB60FB682E
:1022C40003F480327B685B6A9A4206D1FB6803F4AC
:1022D40070127B689B6A9A4201D0012300E00023BC
:1022E40018461837BD4680BD0010024060004242C7
:1022F40080B584B000AF786039607B68002B01D171
:102304000123D0E06A4B1B6803F007033A689A4242
:1023140010D9674B1B6823F0070265493B681343D8
:102324000B60634B1B6803F007033A689A4201D0C1
:102334000123B8E07B681B6803F00203002B20D064
:102344007B681B6803F00403002B05D0594B5B68C2
:10235400584A43F4E06353607B681B6803F0080346
:10236400002B05D0534B5B68524A43F460535360CF
:10237400504B5B6823F0F0027B689B684D49134324
:102384004B607B681B6803F00103002B40D07B6823
:102394005B68012B07D1474B1B6803F40033002B08
:1023A40015D101237FE07B685B68022B07D1414B89
:1023B4001B6803F00073002B09D1012373E03D4B2C
:1023C4001B6803F00203002B01D101236BE0394B9E
:1023D4005B6823F003027B685B68364913434B60F8
:1023E400FEF702FEF8600AE0FEF7FEFD0246FB6817
:1023F400D31A41F28832934201D9032353E02D4B7F
:102404005B6803F00C027B685B689B009A42EBD12B
:10241400274B1B6803F007033A689A4210D2244BF7
:102424001B6823F0070222493B6813430B60204BCF
:102434001B6803F007033A689A4201D0012332E093
:102444007B681B6803F00403002B08D0194B5B68FE
:1024540023F4E0627B68DB68164913434B607B68B6
:102464001B6803F00803002B09D0124B5B6823F4AC
:1024740060527B681B69DB000E4913434B6000F01C
:1024840021F802460B4B5B681B0903F00F030A4952
:10249400CB5C22FA03F3094A1360094B1B68184604
:1024A400FEF760FD002318461037BD4680BD00BF0F
:1024B40000200240001002402027000800000020F5
:1024C400040000202DE9F04F99B000AF664B07F1EE
:1024D40034040FCB07C42380644B07F124040FCBCF
:1024E40084E80F0000237B6500233B650023FB6524
:1024F4000023FB640023BB650023BB6400237B64CF
:102504005B4B5B687B657B6D03F00C03042B02D093
:10251400082B03D09FE0574BBB659FE07B6D9B0C62
:1025240003F00F03403307F12002134413F82C3C4B
:10253400FB647B6D03F48033002B00F084804C4BF0
:10254400DB6A03F00F03403307F12002134413F84E
:102554003C3C3B65464BDB6A03F48033002B60D084
:10256400434BDB6A1B0903F00F030133BB64404B8D
:10257400DB6A1B0A03F00F0302337B647B6C0022CB
:102584003B617A61FB6C0022BB61FA61D7E90434D8
:102594002246D7E9060184460CFB02F2C7E906018C
:1025A4008C4618462146034603FB0CF313440246AB
:1025B400B969A2FB01894B4499462E4B03FB09F2EE
:1025C400002303FB08F313442A4AA8FB02AB5B4431
:1025D4009B46BB6C0022BB60FA603B6D00223B60F3
:1025E4007A60D7E902342246D7E90089414601FBE3
:1025F40002F2CC4618462146034603FB0CF313446F
:1026040002464146A2FB015633441E462A4633463F
:1026140050465946FDF704FE02460B461346FB6539
:1026240007E0FB6C134A03FB02F23B6DB2FBF3F3CE
:10263400FB6597F841301A46FB6C934208D1FB6D59
:102644005B08FB6504E0FB6C0B4A02FB03F3FB65D0
:10265400FB6DBB6502E0094BBB6500BFBB6D184653
:102664006437BD46BDE8F08FF82600080827000847
:102674000010024040787D0100093D0000127A00FC
:1026840080B485B000AF78600A4B1B680A4AA2FB8D
:1026940003235B0A7A6802FB03F3FB6000BFFB6859
:1026A4005A1EFA60002BF9D100BF00BF1437BD4693
:1026B40080BC704700000020D34D621003460244E2
:1026C400934200D1704703F8011BF9E7F8B500BF46
:1026D400F8BC08BC9E467047F8B500BFF8BC08BCFF
:0426E4009E46704757
:1026E800A4C3833A04810000A6C3134006C10000B6
:1026F800000004050607080900000000000D00009E
:102708000102030405060708090A0B0C0D0E0F1039
:10271800980999099809990900000000000000002B
:08272800010203040607080981
:0827300024DBFF7F0100000023
:04273800090200088A
:04273C00E5010008AB
:0C2740000024F400100000000100000064
:0400000508000EF5EC
:00000001FF
